:10000E00FF00C00000C00180C304C0E30FE0E00F9A
:10001E00F83006C01003C0880FC0FB1FFF00186E1B
:10002E00C00FE0F90DF0030C70C20F58F8004C0031
:10003E003846C070438A6140120840331860E33C72
:10004E0040C03F00000000000000300000600000D3
:10005E00600000600030E00370F801603C0000209A
:10006E000300F00F103F067826033EF603303C00E7
:10007E0010300010F803302C0720260E202300B875
:10008E003000FF230000FFFF00F87F00C00F0000CC
:10009E000040C000C0C001C08001C080014080018E
:1000AE00608700F8C30F7CF807F0C000D0400098BE
:1000BE00437EF8F17FBC7C008C600080230FF8F04B
:1000CE000EBE3006C60002C00003C0E001C0C00173
:1000DE00C0800300000300000000000000800170DB
:1000EE00FC03F0BC01E09800009800009800008826
:1000FE001F600C0F7004003FC20137F803308001FF
:10010E00308C0130D80030F100B0600070F000701B
:10011E00F801388C0F1807FF0000000000000000E7
:10012E0000000000000E00001E0000180100F00785
:10013E00B03F0FF00107380001187000187F0080E3
:10014E000F00000C00400C00C0FC00C07C00E00C56
:10015E0000E00D00200F00300C001838000CF00FDE
:10016E0002C07F0000000000000000000000073009
:10017E008007E0C003E07C008018000018000098A3
:10018E000720F8077C38033C0C03307C0130CC018F
:10019E0030860320C60720630E20390CFE0800FEB1
:1001AE00070000FE8000F0FF00C03F0000000000CE
:1001BE000000000000000000000000000000E01F32
:1001CE00CCFF3FFC013C18001C18701C98FF0C184B
:1001DE00610C18610C10330C303F0C30020C3000E7
:1001EE000C30F80EF0FF073000073000060000025A
:1001FE0000000000000000000000000080010080F0
:10020E000300800300800300800100800500801F32
:10021E0000FC3D3E98FC7BC0CC30C0CC3840CC18A6
:10022E0060CC1820CC1830CE1E18C61FC8C700844C
:10023E00030082010000000000000000000000002A
:10024E000000380000300000300700300E00300C87
:10025E001CB00138F003B87F008027008061068053
:10026E007906B05F0690C00698C003C89E03CC9B6B
:10027E00014E9B0166DF03244F2330202610106CA5
:10028E0008007800007000000000000000C00000B0
:10029E00C00000C00600EF0FE06706F03003C01884
:1002AE000DC0C81F40F819E09F19609F1B30FB1945
:1002BE00389B18EC9B1F24F8192288190088190006
:1002CE008C1900841E00021C0001180000000000A2
:1002DE000000400000E00000FC00000F00001800CD
:1002EE0000987F80FF7FFE090000880100FE07E076
:1002FE000903C07803809E0180880180FF000009F9
:10030E000000180000FC00001F0000180000F80F8D
:10031E00E0FF1FF0010000000000000000C007E039
:10032E00FF0EE02606402603C0FE03800F000018D5
:10033E000100F807E01F00C0440000FC0180C70167
:10034E0080D90000CF0000D90000CF0000D10000FE
:10035E00FF0000C13C00FF7FFC0F600000000000AA
:10036E0000000000000000600000E00102C0810FEC
:10037E0080F90F003807000003400003F000037EF1
:10038E00F8036E7800601000601000601840601B6B
:10039E0060E01960E0186070307070F07F30E01F20
:1003AE0000000000000000000000C00000FC01C0C2
:1003BE00CF0100C00000D80080FF0000400000E028
:1003CE000F00FF0FFC0F00000C03000807E09C015C
:1003DE00C07D0000680000CE00808903E08C0F7C99
:1003EE000CFF1C0C3E080F00000E00000C0000005D
:1003FE000000600000600000600000600370F00309
:10040E00607C0040E00100F801007C000C607F1C65
:10041E00FE7FD8070000E00340BC03400C03607C65
:10042E0003203C03300C03387C031C1C031C0C0300
:10043E0018040300C60300840300FC00003F000004
:10044E000C0000FC0FF07F1C380C3C98ED02988DD0
:10045E0000084000C0CD00808E0000160000630032
:10046E0080C500C08C0360281FF8FFFECEE33C025F
:10047E003000000E00000C00001C000018000000F0
:10048E0000007000007000007000003000003000AE
:10049E0000300400F00F00FF1CE01F0C80180C0051
:1004AE00180C000C0C000C0C00060E0006060003C7
:1004BE0006800306C00107C0600770E00318C00184
:1004CE000C8001000000000000000000C0E000C031
:1004DE00C100C0C100C0C000C0400760F007607C12
:1004EE000070600078603E78F07FEC3F006623007D
:1004FE0063300240F00740780E6010076000036022
:10050E00900160E00060C00160C001008003000047
:10051E0000001C0000980100180300100200F001FA
:10052E0000FE00E03300602000602E036063036075
:10053E00C00160DF01F0CD00B0CC11906F13983088
:10054E001E0C003C020C30501C0690001E988118A8
:10055E0018831108FF0300FC03800000C00100C0D7
:10056E000100C0000060000060060030063F18F772
:10057E000F3CF301FC8101888001408001608701FE
:10058E00F88101788001188401008331C0C1FF78A1
:10059E00FEFF3C1E000000000000000000000000F6
:1005AE000000E00000C000C0C000C0C100C0C0001C
:1005BE00C0C00060CF00F0CF0030C60F18C63E3C62
:1005CE00433860C330C0C30080C100C0C000C0C08B
:1005DE000060C00038C0000CC00006C00000C000A3
:1005EE0000E00000C0000040000000000000080015
:1005FE000038000038303C18F07718A03118003160
:10060E001B003D1B8C351B8C351988351BA0251BFB
:10061E00B0351B90371B982610180E300C3A300C44
:10062E00333088613EC0003C2000380000100000CE
:10063E000000000000000000001C80831FFCFF0370
:10064E00183300183100903100F0301FD0F01FC069
:10065E00300CC03204CC3306C8F00FC87000C8305E
:10066E0000D83600D8310078307E1FF0FF0E7800AB
:10067E00000000000000000000000000E00000C0CC
:10068E000000C0000FC0E00FC0F000C00300C003A8
:10069E000EC8E01FD83C1CD80C1CDCF80DCCF80C96
:1006AE00CC180CC09007C0F007C00000C00038C0C6
:1006BE00F87FE0FF70E00200E00000400000000064
:1006CE000000000000800300800300800300800310
:1006DE00008601C08701F8811D80C13F80F93880F6
:1006EE00C01880C018806C18C06318F8600C3E30BB
:1006FE000C0C180C00180C00CC0E0086070083079B
:10070E00C00003000000000000001C000098000064
:10071E00FC01C03F00000C0610360730B201601F0E
:10072E0000008B03403407606606387F00900F0090
:10073E0000181F00FF7FFE1B001E1800001800008F
:10074E00180000180000180000180000080000082B
:10075E000000000000007000007800007800007CAF
:10076E0000003E00003E00001F00801F0E800F1E86
:10077E00C00F7EE007FEF007FCFF03F8FF01F0FF5D
:10078E0001E0FF00C07F00807F00003F00001E00E0
:10079E00000000000000000000000000402000C02B
:1007AE00E10080E10080E10080610E80610C8861D3
:1007BE0008986000B0600FB0E00F807E008060008F
:1007CE00E0E000B0B0019C30018E180384180EC01A
:1007DE00063EC002FCC00000C00000000000000089
:1007EE0000000400001C00001C00000C00000C00A7
:1007FE0000EC0300FE01F01F000036000063000055
:10080E00C300808F03C01C1F60183E180000000834
:10081E000E00181CD0381898001198010318030602
:10082E000C0F0F08FC0F000000001C00001C000045
:10083E000C00000C0000EC0000FC00803F00000DDE
:10084E0000000C0000EC0700FF03F80F00301E0044
:10085E00003E00006F0080CD00C0CC01E08C073060
:10086E000C3F180CFE040C18000C00000C00000CC1
:10087E000000000000000000F00300FF03E07F0016
:10088E0000630000630000630000633F00FF7FE031
:10089E007F007E63000063000063000061008061E2
:1008AE0000806100C06000406000604000184000A1
:1008BE0000400000400000400000380000780000BA
:1008CE00700000000000800780F80F801F07800175
:1008DE000380010380F10380FF00800100C000004F
:1008EE00C08007C0FF1F60070E60030E300306189E
:1008FE0003070CFF0706FE000202000000000000C6
:10090E000000E00080C000E0C107FCFC014C80014B
:10091E0068980028D03F28FF00480303C8FE07E868
:10092E000606C8FC03080C0308EC030878010860EF
:10093E001C0CFC3F8C6F000C60000C60000C600007
:10094E0000600000600000600000000400C81F008E
:10095E00781CC01B0CF8F10D70100660F00760706B
:10096E000260000630C107F8F301B8013398C17F69
:10097E009CFF03F40D0376180313380301300300B4
:10098E00000300000300000300C00300800300000A
:10099E000100000070600060600060600060700028
:1009AE0060B000601801601807F00D1E7EE67D60D5
:1009BE00FAF8700103F00007F821076864036C6C05
:1009CE0003664C0163880160800C60E03F60FF109D
:1009DE0020020000000000000000000000E0000007
:1009EE00FE00801F00001C00009803409803C09872
:1009FE0001C0D90080790000181F00FF3FFE1F00C4
:100A0E001C18000018000018000018000018000044
:100A1E001800001800001800000800000800000868
:100A2E000000C00000C00180C304C0E30FE0E00F6F
:100A3E00F83006C01003C0880FC0FB1FFF00186EF1
:100A4E00C00FE0F90DF0030C70C20F58F8004C0007
:100A5E003846C070438A6140120840331860E33C48
:100A6E0040C03F00000000000080000080010080B8
:100A7E00013880CF3FE0E701F88001C08000C083DD
:100A8E001F70F61DB0261870A609B0A20970A20933
:100A9E00B0A209F0B20990BF0DFCA1093FC10970C7
:100AAE00C70630660C18301C0C1818000010000019
:100ABE000000C00080C10C80C10FC06F00C0A0013B
:100ACE00E03003B0810110860140860FC0DE1FE0CA
:100ADE00F70570A601C0A70040A607C0E706C066CE
:100AEE000640BE03F037037E1303609E0F60CC3CBE
:100AFE003034F8000000000000000C00001C000064
:100B0E000E0000060000030000010080800F40FE72
:100B1E001FFC031C1C001C18001C987F1C98730CD7
:100B2E0098310C98310C18390C181F0C18010C1830
:100B3E00000C18800F10000F0000070000000000CE
:100B4E0000000000000400001C00001C00001C003F
:100B5E0000180000180000180000180700F8070021
:100B6E00F800001800001800001800001800000817
:100B7E000000080000080000883F80FF7FFE07206D
:100B8E000000000000000000000000000000000057
:100B9E00000000003F00FE3FFC3F00381800001828
:100BAE000000180000180000380000F8010098033B
:100BBE0000180300180000180000180000180000AC
:100BCE001800001800001C00001C00001800000097
:100BDE000000000000000000E007E07F0FE01D06AF
:100BEE00601806401806407806407F0660080660CA
:100BFE00080660480660FE06600F0660080660087C
:100C0E00062008063008061008061888070C00078C
:100C1E000600070000000000001002100A10121259
:100C2E00021422F47F100210021805140592089384
:100C3E0008901050703020100080008020FF7F80C0
:100C4E000040012002500C8C700320400094089448
:100C5E001014241224E00700008000800080008021
:100C6E00008008801F80008000800080008000804F
:100C7E000080008020FF7F00000020FF7F400040AA
:100C8E0000400040014002400C400840004000403F
:100C9E00004000400040004000080408040804C85A
:100CAE007F7F4448244804C83F48214811781247A2
:100CBE000A4204200A1071C8200820A87F7F040869
:100CCE00223E7F22213E2922293E2922253E25220F
:100CDE00257F0200121461A2400802F83E1405A2FC
:100CEE000824087E7F24493C09243F3C2524257F87
:100CFE001500099414626201210010FE3F800088E5
:100D0E00088808900490048020FF7F800080008077
:100D1E00008000800080008000100238020F1F88C3
:100D2E00084824FF7F0820CC3F1C20EA3F0A02A976
:100D3E0024A8449850081F080000000222E427242B
:100D4E002AA12AA62AA42AB02AA82AA42AA72A8433
:100D5E002044212422142A04100010BE3FA200A217
:100D6E0000A210BE3F881088108A10BA1F8A108AFF
:100D7E0000BA008F20827F0000800080008010FE6D
:100D8E003F800080008020FF7FC001A00290048879
:100D9E0008847082208000800080000021F87F0887
:100DAE002008200820F83F08000820F87F1820149B
:100DBE002014201220F13F10200010FC3F841084DC
:100DCE00108410FC1F841084108410FC1F84108467
:100DDE001084108210821401080002DE1F92080A8D
:100DEE0025EA7F0610CA3F5210D21F5210D61F0A94
:100DFE0002F27F0202020202020010A03FFF1088E0
:100E0E001F8810841F2410FE3F2508E47FA40824A9
:100E1E00093C092408000A00040802080208050813
:100E2E0005BF084870AC2F0C001A026A128932886E
:100E3E0012880A0820F87F080000000222E4272406
:100E4E002AA12AA62AA42AB02AA82AA42AA72A8432
:100E5E002044212422142A04100000000000000067
:100E6E0000000000006000F000F000600000006074
:100E7E0000F000F000600000000000000000000024
:100E8E000000000000000000000000183C3C3C1870
:100E9E001818001818000000000063636322000099
:100EAE0000000000000000000000000036367F3613
:100EBE0036367F3636000000000C0C3E6361603E15
:100ECE00030343633E0C0C0000000000000061634E
:100EDE00060C183363000000000000001C36361CA0
:100EEE003B6E66663B000000000030303060000054
:100EFE0000000000000000000000000C1818303048
:100F0E00303018180C000000000000180C0C0606FB
:100F1E0006060C0C18000000000000000042663CA3
:100F2E00FF3C664200000000000000000018181888
:100F3E00FF1818180000000000000000000000005C
:100F4E00000000181818300000000000000000001B
:100F5E00FF00000000000000000000000000000084
:100F6E0000000018180000000000000103070E1C0E
:100F7E003870E0C0800000000000003E6363636BC9
:100F8E006B6363633E0000000000000C1C3C0C0C05
:100F9E000C0C0C0C3F0000000000003E6303060C1E
:100FAE00183061637F0000000000003E6303031EE3
:100FBE00030303633E000000000000060E1E3666AB
:100FCE00667F06060F0000000000007F6060607EF6
:100FDE00030363733E0000000000001C3060607E5F
:100FEE00636363633E0000000000007F6303060638
:100FFE000C0C1818180000000000003E6363633EDE
:10100E00636363633E0000000000003E636363633E
:10101E003F0303063C00000000000000000018180B
:10102E000000001818000000000000000000181852
:10103E00000000181818300000000000060C1830D0
:10104E006030180C06000000000000000000007E5A
:10105E0000007E0000000000000000006030180C50
:10106E00060C1830600000000000003E6363060CA2
:10107E000C0C000C0C0000000000003E63636F6B54
:10108E006B6E60603E000000000000081C3663635B
:10109E00637F6363630000000000007E3333333EE2
:1010AE00333333337E0000000000001E3361606076
:1010BE00606061331E0000000000007C3633333365
:1010CE00333333367C0000000000007F3331343C74
:1010DE00343031337F0000000000007F3331343C68
:1010EE0034303030780000000000001E3361606044
:1010FE006F6363371D000000000000636363637F4E
:10110E0063636363630000000000003C1818181846
:10111E00181818183C0000000000000F06060606FE
:10112E00060666663C000000000000733336363C4F
:10113E003636333373000000000000783030303024
:10114E00303031337F00000000000063777F6B6327
:10115E0063636363630000000000006363737B7F5F
:10116E006F676363630000000000001C36636363F7
:10117E00636363361C0000000000007E3333333E91
:10118E0030303030780000000000003E636363634F
:10119E0063636B6F3E0607000000007E3333333E01
:1011AE0036363333730000000000003E6363301C9C
:1011BE00060363633E000000000000FFDB99181871
:1011CE00181818183C000000000000636363636386
:1011DE00636363633E000000000000636363636348
:1011EE006363361C080000000000006363636363E2
:1011FE006B6B7F3636000000000000C3C3663C18E0
:10120E00183C66C3C3000000000000C3C3C3663CA5
:10121E00181818183C0000000000007F6343060CED
:10122E00183061637F0000000000003C3030303029
:10123E00303030303C00000000000080C0E07038DC
:10124E001C0E0703010000000000003C0C0C0C0CEF
:10125E000C0C0C0C3C00000000081C366300000057
:10126E000000000000000000000000000000000070
:10127E000000000000FF00000018180C0000000025
:10128E0000000000000000000000000000003C46CE
:10129E00063E66663B0000000000007030303C36B3
:1012AE00333333336E0000000000000000003E6355
:1012BE00606060633E0000000000000E06061E36F1
:1012CE00666666663B0000000000000000003E639C
:1012DE00637E60633E0000000000001C3632307CEE
:1012EE0030303030780000000000000000003B6617
:1012FE006666663E06663C00000000703030363B87
:10130E0033333333730000000000000C0C001C0C50
:10131E000C0C0C0C1E0000000000000606000E0651
:10132E000606060666663C00000000703030333359
:10133E00363C3633730000000000001C0C0C0C0C05
:10134E000C0C0C0C1E0000000000000000006E7F54
:10135E006B6B6B6B6B0000000000000000006E33C7
:10136E0033333333330000000000000000003E63CF
:10137E00636363633E0000000000000000006E33F4
:10138E003333333E303078000000000000003B66FF
:10139E006666663E06060F000000000000006E3B0B
:1013AE0033303030780000000000000000003E6353
:1013BE00380E03633E0000000000000818187E1867
:1013CE001818181B0E0000000000000000006666D2
:1013DE00666666663B000000000000000000636366
:1013EE0036361C1C0800000000000000000063637D
:1013FE00636B6B7F36000000000000000000633658
:10140E001C1C1C366300000000000000000063631B
:10141E006363633F03063C000000000000007F662C
:10142E000C1830637F0000000000000E18181870B2
:10143E00181818180E0000000000001818181818B8
:10144E000018181818180000000000701818180E50
:10145E0018181818700000000000003B6E00000005
:10146E000000000000000000000070D8D8700000DE
:10147E00000000000000000000000000000000005E
:10148E00000000000000000000000000000000004E
:10149E00000000000000000000000000000000003E
:1014AE00000000000000000000000000000000002E
:1014BE0000070007000700070007000200020002F5
:1014CE0000020002000200000000000000070007FA
:1014DE00000700000000000000000000000660068B
:1014EE00600CC019801100220000000000000000F6
:1014FE0000000000000000000000000000000000DE
:10150E0000000000000000000000000000000000CD
:10151E0000000010401040104010407FE07FE010AF
:10152E00401040208020807FE07FE02080208020BF
:10153E00802080000000000000000000000000027B
:10154E000002000F801AC032C032C032001A000EE4
:10155E000007000380038002C032C032C032C012C6
:10156E00800F0002000200000000000000000000DA
:10157E0000000070C050808880890089008B008A2E
:10158E00005FC0754006200A200A201A2012201182
:10159E004021C0000000000000000000000000001C
:1015AE000000001C00260026002600260025C0385C
:1015BE0080308058804900CD00C700C600C300654A
:1015CE002038C0000000000000000000003000388D
:1015DE00000800080010006000000000000000007D
:1015EE0000000000000000000000000000000000ED
:1015FE0000000000000000000000000000002000BD
:10160E004000800180010003000300060006000672
:10161E00000600060006000600030003000100019C
:10162E0080008000400020000000000000400020EC
:10163E00001000180008000C000C00060006000642
:10164E000006000600060006000C000C000800183C
:10165E00001000200040000000000000000000000C
:10166E00000000000002000200020072703AE00F5B
:10167E00800F803AE072700200020002000000004B
:10168E00000000000000000000000000000000004C
:10169E000000000000000002000200020002000232
:1016AE00007FF002000200020002000200000000B3
:1016BE00000000000000000000000000000000001C
:1016CE00000000000000000000000000000000000C
:1016DE000000000000000000000000000030003894
:1016EE00000800080010006000000000000000006C
:1016FE0000000000000000000000000000000000DC
:10170E00007FE0000000000000000000000000006C
:10171E0000000000000000000000000000000000BB
:10172E0000000000000000000000000000000000AB
:10173E00000000000000000000000000003800382B
:10174E000038000000000000000000000000200033
:10175E0060004000C0008000800100010002000215
:10176E0000060004000400080008001000100030FD
:10177E00002000600040000000000000000000009B
:10178E000000000F00198030C030C06060606060E3
:10179E00606060606060606060606030C030C01922
:1017AE00800F00000000000000000000000000009C
:1017BE00000000020006003E0006000600060006BD
:1017CE0000060006000600060006000600060006DB
:1017DE00003FC000000000000000000000000000FC
:1017EE000000001F00218040C060C060C000C0012A
:1017FE008001800300040008001040204040407F1C
:10180E00C07FC000000000000000000000000000CB
:10181E000000001E00230061806180618001800352
:10182E00000E000180008000C060C060C060C0215A
:10183E00801F0000000000000000000000000000FB
:10184E0000008001800380038005800980098011DB
:10185E00802180218041807FE00180018001800114
:10186E008007E00000000000000000000000000003
:10187E000000003FC03FC020002000200020002FAD
:10188E0000318020C000C000C060C060C041802117
:10189E00801F00000000000000000000000000009B
:1018AE00000000078018C030C030002000600067C4
:1018BE008068C0706060606060606020603040185A
:1018CE00C00F00000000000000000000000000003B
:1018DE000000001FE03FE0304020802080008001AB
:1018EE0000010002000200020006000600060006CB
:1018FE0000060000000000000000000000000000D4
:10190E000000001F8030C060606060606070403C0E
:10191E00C00F00338020C060606060606060603027
:10192E00C00F80000000000000000000000000005A
:10193E000000000F00308030C0604060606060606A
:10194E006060E031601E60006000C000C030803119
:10195E00801E0000000000000000000000000000DB
:10196E000000000000000000000000070007000754
:10197E00000000000000000000000000000700074B
:10198E000007000000000000000000000000000042
:10199E00000000000000000000000000000600062D
:1019AE000000000000000000000000000000000623
:1019BE00000600020004000000000000000000000D
:1019CE00000020004000800100020004000800100A
:1019DE00002000100008000400020001000080003A
:1019EE004000200000000000000000000000000089
:1019FE00000000000000000000000000007FE0007A
:101A0E00000000000000007FE00000000000000069
:101A1E0000000000000000000000000000000000B8
:101A2E0000200010000800040002000100008000E9
:101A3E004000200040008001000200040008001059
:101A4E000020000000000000000000000000000068
:101A5E00000F8030C0406040606060606000C00178
:101A6E00800600040004000400000000000E000EBA
:101A7E00000E00000000000000000000000000004A
:101A8E0000000007801C601020335026D064906444
:101A9E009068906890699069A066C03010302018E8
:101AAE004007800000000000000000000000000061
:101ABE00000000060006000E000B000B00130011C4
:101ACE0080118011801F8020C020C020C020606047
:101ADE0060F0F000000000000000000000000000B8
:101AEE00000000FF00618060C060C060C060C06127
:101AFE00807F0060C06040606060606060606060B9
:101B0E00C0FF800000000000000000000000000088
:101B1E0000000007E01860302030202000600060D8
:101B2E0000600060006000600060203020304018CF
:101B3E00800F000000000000000000000000000008
:101B4E00000000FE00618060C060C0606060606088
:101B5E00606060606060606060606060C060C063B4
:101B6E0080FE0000000000000000000000000000E9
:101B7E00000000FFC06040602060006000610061F6
:101B8E00007F0061006100600060006020602060E6
:101B9E0040FFC00000000000000000000000000038
:101BAE00000000FFC060C060206020600061006126
:101BBE00007F0061006100600060006000600060F6
:101BCE0000F0000000000000000000000000000017
:101BDE000000000F4018C030403040200060006010
:101BEE00006000600063F060C060C030C030C0189C
:101BFE00C00F000000000000000000000000000008
:101C0E00000000F0F06060606060606060606060C6
:101C1E00607FE06060606060606060606060606017
:101C2E0060F0F00000000000000000000000000066
:101C3E000000003FC0060006000600060006000673
:101C4E000006000600060006000600060006000656
:101C5E00003FC00000000000000000000000000077
:101C6E000000000FF00180018001800180018001E1
:101C7E00800180018001800180018001800180014E
:101C8E00800180618063003E0000000000000000C3
:101C9E00000000F3E0608061006200620064006C8E
:101CAE00007C007600670063006380618060C06026
:101CBE00E0F1F00000000000000000000000000055
:101CCE00000000F0006000600060006000600060D6
:101CDE0000600060006000600060006020602060B6
:101CEE0040FFC000000000000000000000000000E7
:101CFE00000000F0F070E070E070E059605960593B
:101D0E006059605A604E604E604E604E6044604452
:101D1E0060E4F00000000000000000000000000081
:101D2E00000000E07070207020582058204C204693
:101D3E002046204320432041A040E040E040604048
:101D4E0060E0200000000000000000000000000025
:101D5E000000000F00198030C0304060606060608D
:101D6E006060606060606060606060304030C019CC
:101D7E00800F0000000000000000000000000000C6
:101D8E00000000FF8060C060606060606060606046
:101D9E006060C07F80600060006000600060006076
:101DAE0000F0000000000000000000000000000035
:101DBE000000000F00198030C0304060606060602D
:101DCE006060606060606060606E60324031C01163
:101DDE00800F8001E000C000000000000000000045
:101DEE00000000FF8060C0606060606060606060E6
:101DFE00C07F006600630063006180618060C06028
:101E0E00C0F07000000000000000000000000000A4
:101E1E000000001F2030E060206020600070003C59
:101E2E00000F0003C000C000604060406060607042
:101E3E00C04F800000000000000000000000000005
:101E4E000000007FE0462086108610060006000681
:101E5E000006000600060006000600060006000644
:101E6E00000F000000000000000000000000000055
:101E7E00000000F070602060206020602060206014
:101E8E002060206020602060206020602060203074
:101E9E00401F800000000000000000000000000055
:101EAE00000000F8F0706030403040304030801854
:101EBE00801880188018800D000D000D000F000690
:101ECE0000060000000000000000000000000000FE
:101EDE00000000F770662066206640664067403757
:101EEE004037403B803B803B803B80398011001166
:101EFE0000110000000000000000000000000000C3
:101F0E0000000079E030C01880188019000D000E16
:101F1E00000600060007000B000B801980118030B0
:101F2E00C079E0000000000000000000000000008A
:101F3E00000000F8F0706030403080188018800D7E
:101F4E00000D000E00060006000600060006000644
:101F5E00001F8000000000000000000000000000D4
:101F6E000000003FE020C041C00180038003000359
:101F7E0000060006000C000C001800182038203057
:101F8E00407FC00000000000000000000007E004D9
:101F9E000004000400040004000400040004000413
:101FAE000004000400040004000400040004000403
:101FBE00000400040007E000000000000000000024
:101FCE00002000100010001000080008000400049B
:101FDE000004000200020001000100010000800068
:101FEE00800040004000400020000000003F000143
:101FFE0000010001000100010001000100010001CB
:10200E0000010001000100010001000100010001BA
:10201E0000010001003F0000000000000007000D5D
:10202E0080104000000000000000000000000000D2
:10203E000000000000000000000000000000000092
:10204E000000000000000000000000000000000082
:10205E000000000000000000000000000000000072
:10206E000000000000000000000000000000000062
:10207E0000000000000000FFF000000000300038FB
:10208E0000080008001000600000000000000000C2
:10209E000000000000000000000000000000000032
:1020AE000000000000000000000000000000000022
:1020BE00000000000000000000000000000F803053
:1020CE00C030C007C01CC030C060C060C060C071EE
:1020DE00D03EF000000000000000000000000000F4
:1020EE000010007000300030003000300033803CB3
:1020FE00C038603060306030603060306030403802
:10210E00C02F800000000000000000000000000052
:10211E00000000000000000000000000000F003171
:10212E00803180618060006000600060403040302F
:10213E00800F000000000000000000000000000002
:10214E0000004001C000C000C000C000C01EC03171
:10215E00C030C060C060C060C060C060C020C03110
:10216E00E01E8000000000000000000000000000E3
:10217E0000000000000000000000000000078018B2
:10218E00C0106030603FE030003000300018201C7E
:10219E00400780000000000000000000000000006A
:1021AE0000000003C006600C600C000C007FC00C29
:1021BE00000C000C000C000C000C000C000C000CB1
:1021CE00003F800000000000000000000000000042
:1021DE00000000000000000000000000000F701959
:1021EE009030C030C030C019801F0030003E001F3C
:1021FE00C06060606070E01F8000000000000000A2
:10220E000010007000300030003000300037803891
:10221E00C030C030C030C030C030C030C030C03030
:10222E00C079E00000000000000000000000000087
:10223E00000000060006000000000000003E000640
:10224E000006000600060006000600060006000650
:10225E00003FC00000000000000000000000000071
:10226E00000000018001800000000000000F8001CE
:10227E008001800180018001800180018001800148
:10228E00800180018033003E00000000000000004D
:10229E000010007000300030003000300033C031CC
:1022AE00003300320036003E003B003300318031F7
:1022BE008079E00000000000000000000000000037
:1022CE000002003E0006000600060006000600069C
:1022DE0000060006000600060006000600060006C0
:1022EE00003FC000000000000000000000000000E1
:1022FE0000000000000000000000000000EEE0778B
:10230E00606660666066606660666066606660668F
:10231E0060F77000000000000000000000000000E8
:10232E000000000000000000000000000073803C70
:10233E00C030C030C030C030C030C030C030C0300F
:10234E00C079E00000000000000000000000000066
:10235E00000000000000000000000000000F001947
:10236E008030C06060606060606060606030C0300F
:10237E00C00F000000000000000000000000000080
:10238E000000000000000000000000000077803810
:10239E00C030603060306030603060306030C038E7
:1023AE00C03780300030007C0000000000000000CC
:1023BE00000000000000000000000000001E403180
:1023CE00C030C060C060C060C060C060C020C0319E
:1023DE00C01EC000C000C003E000000000000000EE
:1023EE0000000000000000000000000000F9E01AEC
:1023FE00601C0018001800180018001800180018AB
:10240E0000FF0000000000000000000000000000BF
:10241E00000000000000000000000000000FE018A7
:10242E0060302030001C000F8001C0206020603022
:10243E00C03F80000000000000000000000000000F
:10244E000000000000040004000C000C007F800C53
:10245E00000C000C000C000C000C000C000C400CCE
:10246E004007800000000000000000000000000097
:10247E000000000000000000000000104071C0309D
:10248E00C030C030C030C030C030C030C030C039B5
:10249E00E01E8000000000000000000000000000B0
:1024AE00000000000000000000000000007CF0387A
:1024BE0060184018400C800C800C80070007000745
:1024CE0000020000000000000000000000000000FC
:1024DE0000000000000000000000000000F7B063E4
:1024EE002063206720372035C039C039C039C0106D
:1024FE0080108000000000000000000000000000BE
:10250E00000000000000000000000000007DE01848
:10251E008019800D000E00060007000B00198011B7
:10252E00C07BE00000000000000000000000000082
:10253E00000000000000000000000000007DE038F8
:10254E0080188018800D000D000D00060006000298
:10255E000004000400280038000000000000000005
:10256E00000000000000000000000000003FC0213D
:10257E008023800300070006000E000C201C20188C
:10258E00603FC000000000000000000000000000DE
:10259E00000000000000000000000000000000002D
:1025AE00000000000000000000000000000000001D
:1025BE00000000000000000000000000000000000D
:1025CE0000000000000000000000000000000000FD
:1025DE0000000000000000000000000000000000ED
:1025EE0000000000000000000000000000000000DD
:1025FE0000000000000000000000000000000000CD
:10260E0000000000000000000000000000000000BC
:10261E0000000000000000000000000000000000AC
:10262E00000000000000000000000000000000009C
:10263E00000000000000000000000000000000008C
:10264E00000000000000000000000000000000007C
:10265E00000000000000000000000000000000006C
:10266E00000000000000000000000000000000005C
:10267E00000000000000000000FF0C27FF000FFF0D
:0C268E00000E0000000000000000000032
:106985005000BFF80007E0001FFFE0000007FFF818
:036995001FFFFFE2
:10570300E4F9F8900085E0FCA3E0FDA3E0FEA3E04C
:10571300FF122D92AC00AD01AE02AF03E422EEF016
:10572300A3EFF0A3ECF0A3EDF0A3EAF0A3EBF022D8
:10573300E4FF1200039000B1E0FFA3E0FD026C5A06
:10574300900091E0FBA3E0FAA3E0F9022BA79000FD
:105753007DE0FEA3E0FFA3E0FCA3E0FD22E0FCA3C9
:10576300E0FDA3E0FAA3E0FBA3E0FFA3E09000A623
:10577300CFF0A3EFF0A37430F0A3E9F022740FF09D
:10578300A3E4F0A322E0F9A3E0FAA3E090009CC90C
:10579300F0A3EAF0A3E9F0227417F0A3E4F0A32244
:1057A3009000ADE0FEA3E0FF22FAF9F8122D92EF8C
:1057B3002430229000A674F8F0A3741FF0122BA7D4
:1057C3009000A8F0227E00CFCDCFCECCCE122C06F7
:1057D300EF243022741FF0A3E4F0A3227D017BFFAA
:1057E3007E00022B81E0FBA3E090009ACBF0A3EBB9
:1057F300F022E475F001022C91FFE0F8A3E02FFF03
:0D580300E83E22E09000A9F07B1F7AF82219
:104AFF00124D2EC2B07F057E00126B3D124D2EC29D
:104B0F00A77D10124CD97F0A124D197D1CE4FF129C
:104B1F006C5A7D12E4FF1200037D127F12126C5A41
:104B2F007D13E4FF1200037D41E4FF126C5A7D14E4
:104B3F00E4FF1200037D507F40126C5A7D10124D1E
:104B4F00057F08126C5A7D11E4FF1200037F0112DA
:104B5F004CE57F03124CE57D1C7F07124D4D7D11F7
:104B6F00E4FF1200037D1C7F0F126C5A7F28124D39
:104B7F00197D397F0F126C5A7F3C7E00126B3D7D81
:104B8F0001E4FF1200037D287F01126C5A7D02128F
:104B9F004D057F01126C5A7D03E4FF1200037D3037
:104BAF007F10126C5A7D08E4FF1200037D087F0806
:104BBF00126C5A7D0BE4FF1200037D057F11126CFE
:104BCF005A7D0C124CD97D15E4FF1200037D20E4B1
:104BDF00FF126C5A7D30124CF97D34124D387D35F1
:104BEF00124CF97D36E4FF1200037DEFE4FF126CE7
:104BFF005A7D37124D0D7D38124D387D39124D0DBE
:104C0F007D50124D267F01126C5A7D51E4FF120028
:104C1F00037D037F09126C5A7D52E4FF1200037D5E
:104C2F00087F0B126C5A7D53E4FF1200037D057F42
:104C3F0008126C5A7D54124D267F01126C5A7D5505
:104C4F00E4FF1200037D067F0D126C5A7D56E4FFC0
:104C5F001200037D0A7F0E126C5A7D57124D457F4D
:104C6F0001126C5A7D58E4FF1200037D0B7F1F1257
:104C7F006C5A7D59E4FF1200037D017F02126C5ABA
:104C8F007D20124D45FF126C5A7D21E4FF12000367
:104C9F00E4FDFF126C5A7D0FE4FF1200037D017FCC
:104CAF001F124D4D7D07E4FF1200037D16E4FF1226
:104CBF006C5A7F207E00126B3D7D07E4FF120003CC
:104CCF007D17E4FF126C5AD2A722E4FF120003E40F
:104CDF00FDFF126C5A227D1C126C5A7F2C7E011222
:104CEF006B3D7D11E4FF12000322E4FF120003E489
:104CFF00FDFF126C5A22E4FF120003E4FD22E4FFD1
:104D0F00120003E4FDFF126C5A227E00126B3D7DF0
:104D1F0011E4FF12000322E4FF1200037D0122D2EF
:104D2F00B07F057E00126B3D22E4FF1200037D3F32
:104D3F007F01126C5A22E4FF120003E4FD22126C71
:094D4F005A7F2C7E01126B3D22FB
:106B3D00E4FDFCC3ED9FEE6480F8EC648098501585
:106B4D00E4FBFA0BBB00010AEB64644A70F50DBD62
:056B5D0000010C80DEC8
:016B62002210
:0B6C4F008F90AF058F80C2A6D2A62256
:05000300C2A5026C4FD4
:056C5A00D2A5026C4F01
:0867DA0090007DEFF0A3EDF04B
:1067E200C2A79000B77401F0A3743FF07BEF7A0068
:1067F200E4FDFCFFFE126935E490007FF0A3F0E4B3
:10680200FBFA90007D12573B0BBB00010AEB64F0D0
:106812004A70EF900080E004F0700690007FE00480
:10682200F0C3900080E0944090007FE06480948107
:0468320040CDD2A7DC
:01683600223F
:106935009000B1EEF0A3EFF0A3ECF0A3EDF07D2015
:106945001257337D21E4FF120003A312573B7D3715
:106955001257337D39E4FF120003A312573B7D36EE
:10696500E4FF120003EAFFAD03126C5A7D38E4FF21
:106975001200039000B712573B7D22E4FF0200038B
:0651830090008C12572180
:10518900E4900097F0A3F078A67C007D017BFF7A7C
:10519900267987FE7F09122B81900090E0FEA3E01B
:1051A900FF9000A675F003122ED9EE75F003A42521
:1051B90083F583E0FBA3E0FAA3E0F9EF4E701090CA
:1051C900009DF0A31257801257807420F0802AEFB7
:1051D90064014E701090009DF0A312579B12579BCB
:1051E9007448F08014EF64024E700E90009DF0A395
:1051F9001257D71257D77484F0900096E0FF339571
:10520900E0FEEF24FFFFEE34FFFE9000A1E0FCA3D7
:10521900E0FD122BF4E92FF9EA3EFAA3EB125793BA
:1052290090008EE0FCA3E0FD90009FE0FEA3E0FF6C
:1052390090008CE0FAA3E02FFBEA3EFA90009DE093
:10524900FEA3E090008E1257FC9000B7F0A3EFF098
:1052590090008CE0FEA3E0FF126935E4900099F01C
:10526900A3F09000A1E0FEA3E0FFC390009AE09FA5
:10527900900099E09E40030253249000A3E0FBA311
:10528900E475F001122CA7A9F0FA122BA7FF9000E0
:105299009BE4F0A3EFF0900090E07002A3E070208F
:1052A900900099E0FEA3E0FF7C007D02122C5BEDEB
:1052B9004C9000977002800CE4F0A37404F080090C
:1052C900900097E4F0A37408F0E4FBFAD3900098F7
:1052D900E09BEA6480F8900097E0648098402BAFE7
:1052E9000390009BE0FEA3E0A807088006CEA2E792
:1052F90013CE13D8F830E005900092800390009403
:1053090012573B0BBB00010A80C290009AE004F0DF
:0B5319007006900099E004F002526B57
:015324002266
:065325009000A0125721C8
:10532B009000A9E0FFB408129000ADE4F0A374085C
:10533B00F0A3E4F0A37410F08014EFB410109000FD
:10534B00ADE4F0A37410F0A3E4F0A37418F01257BB
:10535B00A3C374F09FFDE49EFC9000A0E0FEA3E0CD
:10536B00FFD39DEE9C40030254939000AFE0FCA34F
:10537B00E0FDC374409DFB74019CFA9000A2E0FC1D
:10538B00A3E0FDD39BEC9A4003025493C006C007E5
:10539B001257A39000A0E0FAA3E02FFFEA3ECF2420
:1053AB00FFFBEF34FFFA9000AFE0FEA3E09000A20A
:1053BB001257FCCF24FFCF34FF9000B7F0A3EFF0D0
:1053CB00D007D0061269359000A8E024E0F09000D9
:1053DB00AFE0FCA3E0FD1257A3122BF4EF7803CE42
:1053EB00C313CE13D8F99000ABF0E4A3F09000AB4D
:1053FB00E0FFA3E0FDC39F40030254939000A9E09C
:10540B00FCB408269000A8E0FF3395E0FEEFC4F84B
:10541B00540FC868FFEEC454F048FE74872FF58212
:10542B00740E3EF583E5822D8028ECB4103190008C
:10543B00ACE0FF9000A8E0FD3395E0FC901487757D
:10544B00F030ED122ED9EC75F030A42583F583E501
:10545B00822FF582E43583F583E4939000AAF0E480
:10546B00FC9000AAE030E7059000A480039000A612
:10547B0012573B9000AAE025E0F00CECB408E29048
:08548B0000ACE004F00253F84C
:0154930022F6
:10688E0090009412572190009C125746F960459043
:10689E00009412575490009AE0FBA3E09000A6CB10
:1068AE00F0A3EBF0A3E9F090009FE09000A9F09028
:1068BE000098E0FAA3E0FB12532590009FE0FF90B2
:1068CE000095E02FF0900094E03400F090009D12BF
:0568DE0057F580B22215
:0659180090007D125721F2
:10591E00788A7C007A2679907F061257DFE4900011
:10592E0090F0A304F0A37400F0A3748AF07BA07A25
:10593E0086790178001257067B107A271257AD90A0
:10594E00008AF07B107A271257037BE87A031257EE
:10595E00AD90008BF07BE87A031257037B641257ED
:10596E00AC90008CF0E47B64FA1257047B0A125759
:10597E00AC90008DF0E47B0AFAF9F8900085E0FC1B
:10598E00A3E0FDA3E0FEA3E0FF122D92EB243090E6
:10599E00008EF0125743FF6430702CEF60291257BF
:1059AE00511257B690008912580612532590009244
:1059BE001257F5900089E0FF90007EE02FF09000E6
:1059CE007DE03400F080CC1257437021900089E0C6
:1059DE00F9FFC390007EE09FFF90007DE09400FEF3
:1059EE00C00790007F125760D007025325125751FF
:1059FE009000831257E8900091125788900089E02A
:0F5A0E0090009FF0900081E0FAA3E0FB12688EF9
:015A1D002266
:065A1E0090007D125721EB
:105A240078887C007A2679967F041257DFE4900008
:105A34008CF0A304F0A37400F0A37488F0900085A4
:105A4400E0FAA3E0FB7C037DE8FFAE02122C067FA4
:105A5400641257C8900088F07C007D64AF03AE02E6
:105A6400122C067F0A1257C8A3F0900085E0FEA30B
:105A7400E0FF7C007D0A122C06ED243090008AF0B1
:105A840090008D125746FF6430702FEF602C900009
:105A94007D1257541257B690008712580612532598
:105AA40090008E1257F5900087E0FF90007EE02F63
:105AB400F090007DE03400F080C690008D125746CF
:105AC4007021900087E0F9FFC390007EE09FFF9073
:105AD400007DE09400FEC00790007F125760D0075D
:105AE40002532590007D1257549000831257E8907A
:105AF400008D125788900087E090009FF0900081FD
:085B0400E0FAA3E0FB12688E39
:015B0C002276
:106B1600E49000D6F0D2AF758951758CF8758A303D
:106B2600F58DF58BD2A9D2ABD2ADD28CD28EC2A8BE
:076B3600C2AAC2ACD2882202
:106C3F00126B1690003474FFF0C20012487880FB7C
:1061C500EF75F00AA4FB9000CFE0FEA3E0FF7C0092
:1061D500122C5BC3EF9B2430FEA3E0FBA3E0FAA3E4
:1061E500E02233FE74A32FF58274003EF583E0FCB4
:1061F500A3E0FDEB25E0FFEA33FE74A32FF58274DF
:10620500003EF58322FCFD122E83900087E0FCA35F
:10621500E0FDA3E0FEA3E0FF22ED2432FDE43CFC1B
:10622500C3EF9DEE9C22FFE0FCA3E0FDD39FEC9E17
:1062350022EBF0A3EAF0A3E9F0229000CFE0FEA361
:10624500E0FF7C277D10122C5BEF22F9F8122D0759
:10625500900087122E83E4229000A2E025E0FF90B3
:1062650000A1E022F9EE8FF0022CE82FFFE03EC3FB
:0662750013F9EF13FF22F4
:106C0100C2B7D2A2000000D2B2D2B7000000C2A225
:076C1100000000000000225A
:106BCF00E4FEC2B7EF25E0FF92B2C2B7000000D2D9
:096BDF00B70000000EEEB408EB53
:016BE800228A
:106BAC00E4FDFFFEEF25E0FFEE33FED2B700000060
:106BBC00C2B700000030A4050FBF00010E0DEDB4EC
:026BCC000CE2D9
:016BCE0022A4
:10676C009000CFEEF0A3EFF0A312623612623F243A
:10677C0030FF1261DEF9EF122BC012623F75F00A86
:10678C00A4FB9000CFE0FEA3E0FF7C037DE8126148
:10679C00D5F9900001EE122BD27D641261C5F990EF
:1067AC000002EE122BD27D0A1261C5F9900003EEA5
:1067BC00122BD2EF75F00AA4FF9000D0E0C39F24F7
:0E67CC0030900004122BD2900005E4022BD274
:106B8800126C01126BCFD2B700000000C2B7000030
:106B98000000126BAC0000000000000000000000C4
:036BA80000D2A276
:016BAB0022C7
:025CE300A9070F
:105CE500E49000BBF0A3F0FBFAAF01126B88AC06A1
:105CF500AD071261F8ECF0A3EDF00BBB00010AEB68
:105D0500640C4A70E4E4FAFBEB2401FEE43A9000EB
:105D1500A1F0A3CEF09000A1E0FEA3E0FFC3940C98
:105D2500EE9400504AEF25E0FFEE1261E7E0FEA396
:105D3500E0FFD39DEE9C40269000BDEEF0A3EFF072
:105D450012625D1261E7ECF0A3EDF09000BDE0FC9E
:105D5500A3E0FD12625D1261FDECF0A3EDF0900091
:105D6500A2E004F070AF9000A1E004F0025D1A0B10
:105D7500BB00010AEB640B4A708EE49000BBF0A3F4
:105D8500F0FA7B021261F8E0FEA3E0FF9000BCE0B0
:105D95002FF09000BBE03EF00BBB00010AEB640A5C
:105DA5004A70E19000BBE0FEA3E07803CEC313CEBA
:0C5DB50013D8F9FF9000BDEEF0A3EFF052
:015DC10022BF
:065E990090008B1262363E
:105E9F0090009C7401F0A37400F0A37493F07B0145
:105EAF007A0079911268E3EF7002FF2290009C74E0
:105EBF0001F0A37400F0A37497F07B017A00799539
:105ECF001268E3EF7002FF22900091E0FEA3E090D2
:105EDF00009512622B500512621E4014900095E03F
:105EEF00FEA3E090009112622B506E12621E506959
:105EFF00900093E0FEA3E0FF90009712622C5005F4
:105F0F0012621E4015900097E0FEA3E0FF900093F1
:105F1F0012622C504412621E503F900095E0FEA377
:105F2F00E0FF900092E090009112627090008B124F
:105F3F0061DFC98FF0122CE8900097E0FEA3E0FF1D
:105F4F00900094E090009312627090008E1261DFC7
:0B5F5F00C98FF0122CE87F01227F00A8
:015F6A002214
:0668E300900099126236DC
:1068E9007FD0125CE390009FEEF0A3EFF07F90124F
:1068F9005CE3C39000A0E0946490009FE0940040A2
:1069090008EF9464EE940050037F002290009FE00A
:10691900F9A3E0FD9000991261DFC98DF0122CE80E
:0B69290090009C1261DF1262697F0188
:016934002240
:0660380090007D126236AB
:10603E0090008E7401F0A37400F0A37485F07B01C0
:10604E007A007983125E99900083E0FEA3E0FFE46C
:10605E0090008712620AE47BF0FA1262507BF67AA5
:10606E000EF9F812620F122D9290007D1261DF125E
:10607E00626990007D1261DFF9122CBDD394F0E5B8
:10608E00F094004007E475F0F0122CE8900085E0E3
:10609E00FEA3E0FFE4A312620AE47B407A011262DF
:1060AE00507BDC7A0EF9F812620F122D929000805E
:1060BE001261DF1262699000801261DFF9122CBD4D
:1060CE00D39440E5F094014008740175F040122C11
:1060DE00E89000801261DFF9122CBDFFAEF0D39470
:1060EE0040EE9401500DC374409FFF74019E8FF0DB
:0360FE00122CE879
:01610100227B
:106A99002F536563002550574D0056657273696F12
:106AA9006E3A536E61696C20312E312E3300250008
:0B6AB90050574D3A002F7300636D0032
:10699800026D0000027200000270000002AB0000ED
:1069A80002740000026B0000016F0001B100016A6F
:0A69B8000201B200C101C103C102D7
:103CD500900033F0900081E4F074A9A3F0A374FF81
:103CE500F0A374E0F0A374FCF0A374A0F022C2A7C3
:103CF5009000357405F0A304F0900081E4F074326F
:103D0500A3F07402A3F074FFA3F07407A3F0A374E7
:103D1500FFF0A322E4F608F69000C7E0FAA3E0FB63
:103D25009000CBE0FFA3E022ED242CFBE43CFA74E9
:103D35003629F8E6FFC374E69FFDE49400FC74376A
:103D450029F8E6FFC374E69F900084F0E4940090A0
:103D55000083F09000852278A9E6FE08E6FFD322CD
:103D6500A3F0A37410F07D509000C7E0FAA3E0FB28
:103D75007C007FC87E0022900035741EF0A374205D
:103D8500F0742BA3F09000C7E0FFA3E0900081CF73
:103D9500F0A3EFF02278ADE6FE08E6FF2224FDFD54
:103DA500E034FFFCE0FFA3E09000B7CFF0A3EFF015
:103DB50022900083CFF0A3EFF0786DE6FE08E6FFD2
:103DC500E4FCFDA3122E8390008922900083CFF09E
:103DD500A3EFF0A322E4F074FFA3F07B467D0A7CF9
:103DE500007F0A222401FDE03400FCEB24FEFBEAFF
:103DF50034FFFAE0FEA3E02401FFE43E9000B7F0B3
:103E0500A3EFF022ED242CFBE43CFA747529F8E6C7
:103E1500FFC374E69FFDE49400FC22780C90007EBD
:103E2500E0FEA3E0FFA60608A60722746AF074B9AF
:103E3500A3F07410A3F09000C7E0FAA3E0FB229072
:103E45000080E4F0A37400F0A374ADF07B007A0069
:103E550079A922900083CFF0A3EFF0229000D4E05F
:103E6500FCA3E0FDEC02293D7401900033F09000C5
:103E750081E4F0A322900080E0FB7A0024FDFFEAB4
:103E850034FFFE22900080D3E0FF780DE69F18E610
:103E95009400229000C7E0FFA3E0900092CFF0A32A
:103EA500EFF0227872E6FC08E6FDE402293D900079
:103EB5007E780CE0FEA3E0FFA60608A607227D504B
:103EC5007C007F6E7E0022C3137810760008F69082
:103ED500007EE0FEA3E0FFC3900082E09FFF90001C
:103EE50081E09ECF24E8CF34FFC313FEEF13780E95
:103EF500A60608F622E0FAFF241DFBA3E0F8A3E0DE
:103F0500241DFEE43890008FF0CEA3F0A374C6F014
:103F1500A37418F022780AE6F975F004A4FDACF054
:103F25002428FFE43CFE22E4F0A374FFF02224FDE4
:103F3500FFE034FFCF2DFDEF3CFCE92403FFE43324
:103F4500FEC3EF96FBEE1896FAE0FEA3E024FDFF14
:103F5500EE34FFFEEF2274002FF582E43400F58382
:103F6500E0FD74762EF8A605743A2FF582E4340048
:103F7500F583E0FD74372EF8A6050E0F2290009A02
:103F8500CFF0A3EF22780C900082E6FC08E6FDC393
:103F9500E09D227B017A007D647C007E00229000FA
:103FA50073E064809480229000D6E0FFE4FCFDFE7F
:103FB50090008522EFF0A3ECF0A3EDF0A3EBF02247
:103FC50090007D780CE0FF760008A607229000336C
:103FD500F07401900081F0A3742222E6FA08E6FB52
:103FE500FFAE02227D327BBE7C007F3222F0A3042D
:103FF500F0900081E4F0A322E0FEA3E0FFEE33950C
:10400500E0FDFC90008522780AE6FE08E6FF7C00CC
:104015007D0A122BF4900033E02FFFEC3EFED3EF28
:104025002290008FE4F0A322E0FEA3E0FFA606089D
:10403500A60722C2A790003374FFF022FF90003438
:10404500E0FD3395E0FC22E4900033F0900081F030
:10405500A37432227B017A007D507C007E0022F021
:10406500A304F09000817401F0A3227DAA7BE17C7A
:10407500007F9B222403FBEA33FA18E6FF08E622B9
:10408500780EE6FE08E6FF90007FE02FFD90007EAB
:10409500E03EFC22900034E0FF3395E0FE74002FF3
:1040A500F58274003EF58322125BFBE478B1F622BB
:1040B500EF25E02422F8E6FE08E6FF22780C9000C2
:1040C50082E6FC08E6FDC3E09D22900081E4F0A3B2
:1040D500227DAA7BBE7C007F32227DFA7B547C0048
:1040E5007F0F227DFA7B9A7C007F5522786DE6FE54
:1040F50008E6FF2279B1E7C3786A9622EF9432EE9B
:10410500940022EF94D2EE940022900035F0A3742F
:1041150001F0900081F0A3741822743AF0A3741092
:10412500F022F0A37407F0A374E0F02274F8F0A372
:10413500E4F022900035F0A304F0A3042274FFF00C
:10414500A374E0F022E0F92403FBE433CBC39FFF23
:10415500EB9EFE22E0FCA3E0FDEB24FFFBEA34FF2F
:10416500FA222402FDE03400FCE0FEA3E024022252
:10417500EFF0A3ECF0A3EDF0227B647DA07C007F43
:104185001E227BD27DA07C007F8C22EFD39DEC6428
:1041950080F8748098227B967D0A7C007F5A22E005
:1041A500FFA3E0900094CFF0A3EFF022E6FE08E62F
:1041B500FFC3E09F22EF94BEEE9400227DB17C0008
:1041C5007FB4227DD97C007FB422EF9446EE940023
:1041D50022E47836F678217665786A760222EF94BD
:1041E50054EE940022EF949AEE940022EF94E1EEBF
:1041F50094002204900081F0A37422229000897417
:1042050008F022FDE0FEA3E0240322E024FDFBE408
:1042150034FFFAAF03FE22E6FF08E690008FCFF0E9
:10422500A3EF2274D1F0E4A3F0A32274F8F0A374F1
:104235001FF0222435F582E43400F583E022D3789B
:1042450075E694AA18E6940022900081F0A37418EC
:10425500222403FFE433FEE02403FD2274EAF0A3E5
:10426500E4F0A3741FF022E0FDFF3395E0FEEF7844
:10427500022225E02422F8E6FC08E6FD2225E024BA
:1042850022F8A60408A60522E07A00FF7E0022E0B7
:10429500FEA3E0FFC3229000337401F022EF9418CF
:1042A500EE9401229000337402F0227D617C007F40
:1042B500B4227D897C007FB422900035F0A374057B
:1042C500F0A3227D647C007E00227872A60608A6F3
:1042D50007D2042274A9F0E4A3F022EF94A9EE9486
:1042E50000227BE17C007F9B22EF94D1EE9400229B
:1042F500EF94F9EE940022EF9422EE9401227D22B0
:0F4305007C017E0022FBAA062428FFE43AFE2258
:03000B0002627B13
:10627B00C0E0C083C082C0D075D000C000C002C0D7
:10628B0003C004C005C006C007758CF8758A30784A
:10629B00B006E618700106787106E61870010678EC
:1062AB00AC06E6187001069000D6E0FF78AFE6FC6E
:1062BB0008E6FDD39FEC94004004C2B18002D2B13A
:1062CB00ED64644C700578AFF608F67870B6010A89
:1062DB0008B6F40618760008760078ABE6FC08E6FC
:1062EB00FDBC031CBD8419AF8DEFFEAB8B7A00E4B4
:1062FB002B7875F6EA3E18F6758D00758B00800DC0
:10630B00BC030ABDE80778AB7600087600D007D04F
:10631B0006D005D004D003D002D000D0D0D082D08C
:04632B0083D0E03209
:106AEE00900089EEF0A3EFF0126B02126C5A126B4B
:106AFE0002026C5A900089E0FFA3E0FD126C5A90DE
:086B0E000089E0FFA3E0FD2275
:0645C80090007D123FB9D6
:1045CE007E00C0077A00A3123DA9D0071269357884
:1045DE000E123E22780E9000821241B1900081E0C0
:1045EE009E4023123FC5123E8950117DFF7FFF1260
:1045FE006C5A780D06E61870ED0680EA780F06E61E
:10460E001870D10680CE123FC5123E895023123F3C
:10461E00E0C006C00790007EE0FCA3E090007E1292
:10462E004208123DFED007D00612484470DB0680C9
:10463E00D8123FC5123E895019123FE0C0079000B4
:10464E0082E0900081123DA2D00712485870E50614
:10465E0080E2123E20123F8A900081E09C4018902A
:10466E00007D12428DC007124079123DADD0071267
:10467E00484470E10680DE123E20123F8A9000818F
:10468E00E09C4017123E7AC00718E6FF08E6123D7E
:10469E00ADD00712485870E20680DFE4780EF608B7
:1046AE00F6E4780CF608F6780EE6FC08E6FD780CD3
:1046BE00123D5E9DEE9C503B90007D12414AC0061D
:1046CE00C007900082E0900081123F33780F26FFE2
:1046DE00EE1836123E01D007D006126935900087CB
:1046EE00E0FFA3E0FD126C5A780D06E61870010685
:1046FE000246B5780F06E618700106D3780FE694D9
:10470E000318E69400409A123E7AC00790007E127B
:10471E00415990007E123DA9D00712482A12486CCA
:10472E00123E7AC006C00790007FE090007E123DD8
:10473E00E9D007D00612482A900080124210C00617
:10474E00C00790007FE090007E124167123DFED0C0
:10475E0007D00612693512486C900084E0F470742C
:10476E0090007DE0FF900080E0C39FFF900083E00B
:10477E0075F018A4FEC3EF9E123ECCE4780CF6083A
:10478E00F6900083C3123E8D400302482990007DAF
:10479E00E0781126FFE41836FEC006C007124085E9
:1047AE00123E989000CD1241A4780DE612423804C4
:1047BE00900096F0D007D0067B017A0012518378D4
:1047CE0011741826F618E436F6780D06E618700100
:1047DE000602478F90007DE0FD900080E0C39D248F
:1047EE00F0123ECCED781126FFE41836FEC006C05E
:1047FE0007124085123E3B9000CDE0FFA3E09000F3
:10480E00A6CFF0A3EFF0900084E024309000A8F043
:0B481E00A37410F0D007D00612532541
:1048290022126935900085E0FFA3E0FD126C5A90D1
:104839000085E0FFA3E0FD126C5A22126935900051
:1048490085E0FEA3E0FF126AEE780D06E618221253
:104859006935900087E0FEA3E0FF126AEE780D0645
:0F486900E61822900085E0FFA3E0FD126C5A22B2
:0663D80090007D123FB9A8
:1063DE00E4900088F0A3F0BB1006A3F0A3F0800FAA
:1063EE00900080E0B4180890008AE4F0A304F0E472
:1063FE00900086F0A3F0900085E0FFC3900087E048
:10640E009F900086E09400506390007DE0FF900026
:10641E0089E02FFF900088E03400FEC00790007ED8
:10642E00E0FCA3E0FD90008AE0FAA3E0FB9000817F
:10643E00123E9B9000831241A4900087E0124238D6
:10644E00900096F0D007125183900080E0FF9000EC
:10645E0089E02FF0900088E03400F0900087E0048F
:0C646E00F07093900086E004F0026404DB
:01647A0022FF
:0B5B0D0090007E123FBC90007DEFF086
:105B1800780C760008F6900080E0FFD3780D123EEE
:105B2800915023123FE0C006C00790007EE0FCA31E
:105B3800E090007E124208123DFED007D006125BAC
:105B4800D370D30680D090007D780C123FCA9000A5
:105B580080E0FFD3780D123E915019123FE0C00744
:105B6800900082E0900081123DA2D007125BE7709E
:105B7800DD0680DA123EB3780C900082123F8F90D7
:105B88000081E09C401890007D12428DC0071240B1
:105B980079123DADD007125BD370DC0680D9123E76
:105BA800B3780C9000821240C6900081E09C401AA5
:105BB800900080123E7DC00718E6FF08E6123DAD52
:0A5BC800D007125BE770DA0680D701
:105BD20022126935900085E0FEA3E0FF126AEE789A
:105BE2000D06E61822126935900083E0FEA3E0FF5D
:095BF200126AEE780D06E6182295
:0B4FA00090007E123FBC90007DEFF0FF
:104FAB00780C760008F6900080E0FFD3780D123E67
:104FBB00915024123FE0C006C00790007EE0FCA396
:104FCB00E0FD90007E124209123DFED007D0061282
:104FDB00515B70D20680CF90007DE0FF780C76009D
:104FEB0008A607900080E0FFD3780D123E91501C6D
:104FFB00123FE0C007900082E024FDFD900081127B
:10500B003DA5D00712516F70DA0680D790007E78DD
:10501B000C123EB81240C1900081E09C40189000E9
:10502B007D12428DC007124079123DADD00712514F
:10503B005B70E10680DE90007E780C12402D1240F2
:10504B00C1900081E09C401A900080123E7DC00709
:10505B0018E6FF08E6123DADD00712516F70DF0660
:10506B0080DCE4780EF608F6E4780CF608F6780E99
:10507B00E6FC08E6FD780C123D5E9DEE9C503B90E5
:10508B00007D12414AC006C007900082E09000816B
:10509B00123F33780F26FFEE1836123E01D007D0A1
:1050AB0006126935900085E0FFA3E0FD126C5A787B
:1050BB000D06E61870B806025079780F06E61870E0
:1050CB000106D3780FE6940318E69400409A9000FB
:1050DB0080123E7DC00790007E12415990007E12D7
:1050EB003DA9D007125141900083E0FFA3E0FD12D0
:1050FB006C5A900080123E7DC006C00790007FE086
:10510B0090007E123DE9D007D006125141900080ED
:10511B00124210C006C00790007FE090007E124143
:10512B0067123DFED007D006126935900083E0FF71
:06513B00A3E0FD026C5A26
:10514100126935900083E0FFA3E0FD126C5A9000D4
:1051510083E0FFA3E0FD126C5A22126935900083AF
:10516100E0FEA3E0FF126AEE780D06E6182212694E
:1051710035900085E0FEA3E0FF126AEE780D06E6A9
:025181001822F2
:0F54940090007DEEF0A3124175A3EAF0A3EBF0B8
:1054A30090007F124294900084E09FFD900083E07F
:1054B3009EFC12293DC004C005C006C00790007DB4
:1054C300124294900082E09FFD900081E09EFC12C6
:1054D300293DA804A905AA06AB07D007D006D00525
:1054E300D00412289B900087122E8390007F78109F
:1054F30012402D90007DE0FEA3E0FF780CA6060885
:10550300A607780C9000821241B1900081E09E5072
:10551300030255E090007DE0FCA3E0FDEF9DFDEE6E
:105523009CFCE412293D900087E0F8A3E0F9A3E096
:10553300FAA3E0FB122792C004C005C006C007907F
:10554300007F123E64D003D002D001D0001226A106
:10555300122976780EEEF608EFF608E6FC08E6FD6B
:10556300D3EF9DEE9C4014780DE6FBFFC007ED24BE
:1055730001FDE43CFC0812421C8035780EE6FC0871
:10558300E6FDC3781196EC1896780DE6FBFF5014F0
:10559300C0077811E624FFFE18E634FF90008FF071
:1055A300A3CE800CC00708E6FC08E6FD1812421CD7
:1055B300F0900085E0FFA3E0900091CFF0A3EFF01F
:1055C300D0071266E7780EE6FE08E6FF08A606088F
:0D55D300A607780D06E618700106025505C2
:0155E00022A8
:0666E70090008B123FB988
:1066ED007E00C0077A00A3123DA9D007126935902C
:1066FD00008CE0FFA3E0900093CFF0A3EFF09000AB
:10670D008FE0FEA3E0FFD3900094E09F900093E014
:10671D009E504B90008BE0FF900095E4F0A3EFF0BE
:10672D0090008EE0FFD3900096E09F900095E0944E
:10673D0000501B900091E0FFA3E0FD126C5A9000F9
:10674D0096E004F070DA900095E004F080D29000AD
:0E675D0094E004F070A8900093E004F080A097
:01676B00220B
:105DC200900034E004F078B106E0C3648094B240FD
:105DD2002520001D126837124243400678A776AA92
:105DE20080067875E678A7F69000D6E07868F6D255
:105DF20000E4900034F0124243400812409974AA21
:105E0200F080127875E612404174002DF58274001C
:105E12003CF583EFF09000D6E0124041743A2DF544
:105E22008274003CF583EFF0123D2590009ACFF08A
:105E3200EF123D11746AF0A37499F0A37408F07D17
:105E420018123D6D12688E123D1D123E5878741262
:105E52003DC07408F07D187C007F9C7E00125918AA
:105E6200123D25123F82123D12746AF0A3749EF015
:105E72007408123E397D07123D7512688E123D1D5F
:105E8200123E58123FAC123DC97408F07D077C00E7
:075E92007F9C7E00025918FD
:086102009000D4EEF0A3EFF0D1
:10610A00FDAC06EC12293D7BC37ACF7907783712AA
:10611A002792C004C005C006C007123E61D003D052
:10612A0002D001D000122792C004C005C006C007E1
:10613A00123E61D003D002D001D000122792C004CF
:10614A00C005C006C007123E61D003D002D001D0FC
:10615A0000122792C004C005C006C007123E61D0D3
:10616A0003D002D001D000122792C004C005C00695
:10617A00C007123E61D003D002D001D0001227928C
:10618A00C004C005C006C007123E61D003D002D0C9
:10619A0001D000122792C004C005C006C007123EF3
:1061AA0061D003D002D001D0001227927BC37AF5C6
:0A61BA0079FC78401226A112297624
:0161C40022B8
:105BFB007836E62401FFE433FE7821E6FDC3EF9D02
:105C0B007480F86E98405C7874E6FE08E6FF240119
:105C1B00FDE43EFC786DE6FA08E6FBC3ED9BEC9ADF
:105C2B00500F7875E6FD786EE6C39D782126F680D9
:105C3B001EEF24FFFFEE34FFFED3EF9BEE9A400FD7
:105C4B00786EE6FF7875E69FFFC37836E69FF678A9
:105C5B0021E6D39465400276657836E6C39400500E
:105C6B0002E4F61240F14E70069000D6F0803D78BB
:105C7B0074E6FC08E6FDC39FEC9E50109000D6E046
:105C8B007836F6FF7821E6FBEF2B8017C3786EE6AC
:105C9B009D18E69C50169000D6E014FF7821F678FC
:105CAB0036E62FFFE433A2E713EF13F07821E6FF7C
:105CBB007836E6FED39F4008A607AF067821A607E5
:105CCB009000D6E0D3946440037464F09000D6E067
:075CDB00C394005002E4F045
:015CE200229F
:10487800124AFF7D1F7FF81267DAC2A790003574CD
:1048880003F0A3740BF0900081E4F07464123D050A
:10489800123F2C123FE91245C8E4900035123FF24E
:1048A80074A0123D06123F2C7D6E123FEB124AE7B0
:1048B8007403123FF274DCF07404123D09123F2CA9
:1048C8001240D6124AE7740C1240647418F0A374AC
:1048D80004123D0A123F2C7DE61240D81245C81238
:1048E8003D25123F82123D12746AF0A374A3F0A30F
:1048F8007408123E3A7D2C7C017F2D7E0012688E52
:10490800D2A712403878ACE66420700418E6640335
:1049180070477B0190008004F0A37400F0A3746FCB
:10492800F07A00796D125F6B123D1D123E589000AF
:104938006D123FFD123DC97408F0123DE27E00126F
:104948005918123D1D123E5890006F123FFD123D3E
:10495800C97408F07D1E124ADD78ACE664F4700470
:1049680018E66401703F7B017A00797112647B78E4
:1049780008A60608A607123D1D123E5818123DC08B
:104988007408F07D32124ADD123D1D123E58900027
:1049980071123FFD123DC97408F07D467C007F0A04
:1049A8007E0012591878ABB6031208B6E70E125DEE
:1049B800C22002081240F940031240AD30A303029E
:1049C800490A123E44126038123D5C74329FE49EDC
:1049D80050311241BA502C123D9A746E9FE49E5089
:1049E80022EF94A0EE9400501A900081E4F074A095
:1049F800123D0D123F2C7D6E124AF5E4900033F003
:104A0800024AAE123D5C74329FE49E502E1241BAA7
:104A18005029123D9A74AA9FE49E501FEF94DCEE31
:104A280094005017123E7374DC123D0E123F2C1284
:104A380040D6125B0D12429B024AAE123D5C7432A4
:104A48009FE49E50291241BA5024123D9A74E69F61
:104A5800E49E501A1242A25015740112424E123DA1
:104A68000E123F2C7DE6124AF51242A98038123DFB
:104A78005C74329FE49E502E1241BA5029123D9A1E
:104A880074329FE49E501FEF9464EE940050171206
:104A98003E737464123D0E123F2C123FE9125B0DF7
:104AA8009000337403F030A3FD900033E0700302EC
:104AB8004314900033E0B40103023683900033E0DE
:104AC800B40203022EE5900033E064036003024958
:044AD8000A124D5819
:104ADC00227C007F0A7E00125918221245C89000D1
:104AEC00357402F0A314F0A3227BBE7C007F32123B
:034AFC005B0D222D
:106A0000900073124175900073123EFA1266E7907F
:106A10000073E0900075124256900074E03400FC60
:106A20009000927484F07410123F0FA3741BF07BDB
:066A3000017A000251830F
:106A3600900073124175900073123EFA1266E79049
:106A46000073E0900075124256900074E03400FC2A
:106A5600900092E4F0A3741F123F10A3741BF07B06
:066A6600017A00025183D9
:104D58007D1F7FF81267DA123CF3123DDA1245C85C
:104D6800900035740BF0A3741112413B123D891267
:104D78003D25123DD07404F07D64124F8C1242B070
:104D8800200105126A008003126A36741412413831
:104D9800F0A304123D89123D25123DD07404F07D24
:104DA8008C124F8C1242B7200305126A008003123E
:104DB8006A3674181242BE7419F0A304123D89129F
:104DC8003D25123DD07404F07DB4124F961241C1B6
:104DD800200205126A008003126A3674011242BE6C
:104DE8007403F0A314123D89123D25123DD07404BA
:104DF800F07DDC124F961241C8300203024F740254
:104E08004F8512403878ABB6031208B6E70E125D2C
:104E1800C22002081240F940031240AD20A3E31259
:104E28003E44126038123D5C740A9FE49E5023127F
:104E380041CF501E123D9A740A9FE49E50141241AD
:104E480001500F12404C123D0E123DDA125B0D025A
:104E58004EF7123D5C74B49FE49E501D12410850F9
:104E680018123D9A74619FE49E500EEF947FEE9461
:104E780000500612429B024EF7123D5C74B49FE448
:104E88009E501C1241085017123D9A74899FE49E47
:104E9800500DEF94A7EE940050051242A9805012CD
:104EA8003D5C74B49FE49E501F124108501A123D95
:104EB8009A74B19FE49E5010EF94CFEE940050087E
:104EC8009000337403F08027123D5C74B49FE49E15
:104ED800501D1241085018123D9A74D99FE49E50F3
:104EE8000EEF94F7EE940050069000337404F030FF
:104EF800A3FD900033E0FF7003024F8BEFB4011263
:104F0800200108D2011242B0024F85C2011242B0FC
:104F1800805A900033E0B40211200307D2031242F2
:104F2800B7805AC2031242B78042900033E064034C
:104F3800701F20020FD2027DB1FC7FB4126A3612B4
:104F480041C88028C2021241C1126A001241C880B9
:104F58002C900033E064046003024E0A300213C24E
:104F6800027DD9FC7FB4126A361241C1126A00026E
:104F78004E0AD2021241C8126A001241C1126A36A0
:104F8800024E0A227B187C007F1E1263D8227B18EF
:084F98007C007F1E1263D82289
:104314007D1F7FF81267DA123CF3123DDA1245C8AA
:10432400740712410F123D06123F2C12417E1245B2
:10433400C8740812410F123D06123F2C1241871215
:1043440045C81240267480123D1274E0F07BC37D90
:104354007E7C007F6E1266E7300239123D25123FE3
:1043640082123D12746AF074B7123E357D64123DB8
:104374007512688E123D25123F82123D12123E3094
:104384007F281242C812688E123D1D123E58123FF9
:10439400AC024401123E98123D25900094123DD384
:1043A4007403F07F28123F98125183123E98123DF5
:1043B40025900094123DD37402F07F41123F98126D
:1043C4005183123D1D9000A6123DD312411F7F5B05
:1043D4001242C8125325123D25123F82123D127417
:1043E4006AF0A374BE123E367D64123D7512688E67
:1043F400123D1D123E581240F1E4FCFDA3123DC9CA
:104404007410F07D64123EC512591812403878AB0E
:10441400B6031208B6E70E125DC22002081240F974
:1044240040031240AD20A3E3123E44126038123D13
:104434005C740A9FE49E50201241CF501B123D9A97
:10444400740A9FE49E5011124101500C12404C1208
:104454003D0E123DDA0244BC123D5C741E9FE49E84
:104464005028EF9464EE94005020123D9A74A09F5B
:10447400E49E50161242A2501112429B12424E1256
:104484003D0E123F2C12417E802E123D5C748C9F97
:10449400E49E50271241085022123D9A74A09FE4D2
:1044A4009E50181242A250131242A91412424E12E4
:1044B4003D0E123F2C124187125B0D30A3030245BF
:1044C40086900033E06401703420021B786DB603DB
:1044D4000C08B6E8081876030876E8803F786E067C
:1044E400E61870010680359000D6E0B4640674E8DE
:1044F400F002454B9000D6E004F002454B900033A7
:10450400E064027059200230786EE618467005F6B1
:1045140008F68008786EE61618700116123D1D1212
:104524003DB67410F07D64123EC51259181241D67E
:104534001240F11242CF80269000D6E07003F08042
:10454400069000D6E014F0123D1D123E58123FAC06
:10455400123DC97410F07D64123EC512591830A37F
:10456400030244BF7871E66490700418E664017035
:10457400030244BF78ABB603E508B6E7E1125DC2B7
:1045840080DC900033E0FF603AEFB40114900081C6
:104594007401F0A37418123D0E123F2C12417E8058
:1045A4001C900033E06402600302440F9000810415
:1045B400F0A37418123D0E123F2C124187124FA023
:0445C40002440F227C
:10368300E4780AF608F67D1F7FF81267DA123CF336
:10369300E4F0741F123DDE1245C8123FF61242D900
:1036A3007407123CE07D82123C961242D9A374083F
:1036B300123CE17D82123CA61242D9A37409123C4A
:1036C300E17D82123CCB123FF61242287404123C75
:1036D300E17DAA123C961242287405123CE17DAAB0
:1036E300123CA61242287406123CE11240701245A5
:1036F300C8123FF674F9F0E4A3F0A304123CE17B93
:10370300547F0F123CB67402123CE17B9A7F551230
:103713003CB67403123CE17DD21240721245C812CA
:1037230040687422F0E4A3F0123CE01240DF12453B
:10373300C89000357409F0A374041240677422F032
:10374300A37402123D12123CE51240E81245C890E0
:103753000035740A1240647422F0A37402123D12FD
:10376300123CE57DFA123CCB9000C7E030024312D5
:103773003D21123E58123FAC123DC97410F0123E67
:10378300C3125918123D25123F82123D12123E30C8
:103793007D507C007F287E0012688E123D25123FEB
:1037A30082123D12746AF074B7123D6512688E027C
:1037B300381D123E9C123D25900094123DD3740394
:1037C300F07F28124059125183123E98123D2590E2
:1037D3000094123DD37402F07F4112405912518379
:1037E300123D1D9000A6123DD312411F7D507C0057
:1037F3007F5B7E00125325123D25123F82123D123C
:10380300746AF074BE123D6512688E123D1D123D3E
:10381300B67410F0123EC3125918124026746C127B
:103823003D1274E0F07BC37D6A7C007F6E1266E715
:1038330012403878ABB6031208B6E70E125DC22009
:1038430002081240F940031240AD20A3E3123E44A4
:10385300126038123D5C740A9FE49E50241241CFDB
:10386300501F123D9A740A9FE49E50151241015055
:1038730010740A123E6F7432123D0E123DDA023A90
:10388300C8123D5C740F9FE49E50211241E3501C0B
:10389300123D9A74829FE49E50121242E0500D74BE
:1038A30007123CD57D821240E1023AC8123D5C7496
:1038B300559FE49E50211241EA501C123D9A748296
:1038C3009FE49E50121242E0500D7408123CD57DC5
:1038D300821240EA023AC8123D5C749B9FE49E50F8
:1038E300241241F1501F123D9A74829FE49E501599
:1038F3001242E050109000337409123CD87D8212BA
:1039030042E7023AC8123D5C740F9FE49E502C12AA
:1039130041E35027123D9A74AA9FE49E501D124220
:10392300EE50189000337404123E7274D1123CE1CD
:103933007B547DAA7C007F0F023AC8123D5C74550C
:103943009FE49E502C1241EA5027123D9A74AA9F7D
:10395300E49E501D1242EE50189000337405123E3F
:103963007274D1123CE17B9A7DAA7C007F55023AA6
:10397300C8123D5C749B9FE49E50271241F1502274
:10398300123D9A74AA9FE49E50181242EE5013906F
:1039930000337406123E7274D1123CE1124070027D
:1039A3003AC8123D5C740F9FE49E50271241E350C6
:1039B30022123D9A74D29FE49E50181242F550137E
:1039C300123E6D74F9123CE17B547DD27C007F0F73
:1039D300023AC8123D5C74559FE49E502C1241EA92
:1039E3005027123D9A74D29FE49E501D1242F55007
:1039F300189000337402123E7274F9123CE17B9A00
:103A03007DD27C007F55023AC8123D5C749B9FE4D3
:103A13009E50291241F15024123D9A74D29FE49E84
:103A2300501A1242F550159000337403123E72740B
:103A3300F9123CE17DD21242E7023AC8123D5C74AE
:103A43000F9FE49E50261241E35021123D9A74FACF
:103A53009FE49E50171242FC5012E4900033F0048E
:103A6300123FD8123CE11240DF023AC8123D5C74A7
:103A7300559FE49E50211241EA501C123D9A74FA5C
:103A83009FE49E50121242FC500D740B123FD2124F
:103A93003CE11240E8802E123D5C749B9FE49E50F3
:103AA300271241F15022123D9A74FA9FE49E501856
:103AB3001242FC5013740C123FD2123CE17BE17DA5
:103AC300FA7C007F9B125B0D30A3FD900033E0FF77
:103AD300640A7003023C95E4D39F5045EF94095068
:103AE3004020021A12400C94E8EE9403780A50071F
:103AF300A60608A607801F76030876E880181240FA
:103B03000C9464EE9400780A5007A60608A6078072
:103B1300057600087664123D1D123E58780A023B72
:103B23007E900033E0640B7042200218780AE6FEB0
:103B330008E6FF786DEEF6FE08EFF6FF1241D612A7
:103B430042CF8007780BE69000D6F0123D25123E57
:103B530058780A123DC07410F07B1F7A00123EC3DE
:103B6300125918E4780AF608F6801C900033E0B482
:103B73000C15780A123D19123E5818123DC07410E4
:103B8300F0123EC3125918900033E0B4070D9000B1
:103B930081123CDC7B547D82023C57900033E0B4BD
:103BA300080D900081123CDC7B9A7D82023C709070
:103BB3000033E0B4090D900081123CDC7BE17D828F
:103BC300023C8B900033E0B4040F1240CF74D11247
:103BD3003CE17B547DAA023C57900033E0B4050FCF
:103BE3001240CF74D1123CE17B9A7DAA023C7090C3
:103BF3000033E0B4060F1240CF74D1123CE17BE1F5
:103C03007DAA023C8B900033E0B4010E1240CF74C6
:103C1300F9123CE17B547DD2803A900033E0B40248
:103C23000E1240CF74F9123CE17B9A7DD2803E9014
:103C33000033E0B4030E1240CF74F9123CE17BE190
:103C43007DD28044900033E070101241F8123CE1C1
:103C53007B547DFA7C007F0F8032900033E0B40BFD
:103C63001274011241F9123CE17B9A7DFA7C007FC8
:103C7300558019900033E0640C600302383312411D
:103C8300F8123CE17BE17DFA7C007F9B124FA0029E
:023C93003833C4
:103C9500227B547C007F0F1245C8900081E4F0A37D
:103CA500227B9A7C007F551245C8900081E4F0A3E1
:103CB500227DD27C001245C8900081E4F0A374F9FE
:103CC500F0E4A3F0A3227BE17C007F9B1245C82290
:10632F001240261242617B2C7D467C007F2812662C
:10633F00E71240261242617BF07DE67C007F281237
:10634F0066E712402674501241277D501263B174D4
:10635F00821241277D821263B174B41241277BF000
:10636F007DB47F2C1263C17B507F501263987B7872
:10637F007F781263987BA07D467FA01263C17BC894
:10638F007D467C007FC80266E77D467C001266E78B
:10639F0090008FE4F0A374E6F0A37407F0A374E009
:1063AF00F0227BF07C007F2C1266E790008FE4F0E8
:1063BF00A3227C001266E790008FE4F0A374E6F04E
:0963CF00A37407F0A374E0F022AE
:10683700200031E4FF124042124190504974002F6A
:10684700F582E43400F583E0FE74762FF8A606742B
:106857003A2FF582E43400F583E0FE74372FF8A66B
:10686700060F80D1E4FE900034E004FFEFD39431AB
:106877005005123F5B80F5E4FF12404212419050F1
:0668870005123F5B80F3E7
:01688D0022E8
:102EE5007D1F7FF81267DA123CF3123DDA1245C8EE
:102EF500900035740E123FF27432F0A37402123D45
:102F050012123CE512419B1245C8125DC2124026C1
:102F15007411123D1274E0F07D0B7C0012367B12A9
:102F250040267423F0A31241317D1DFC12367B121D
:102F3500632F7822123D19900083123DD3122EA8DB
:102F4500000000001242017DE012365D123D1D9029
:102F55000083123DD3122EA8000000321242017DDB
:102F6500AE12365D123D1D900083123DD3122EA880
:102F7500000000641242017D7C7C00E4FFFE1259D2
:102F850018123D1D900083123DD3122EA80000009B
:102F9500961242017D4A7C00E4FFFE12591890000A
:102FA50035741CF0A304123D89123D25123DD074E1
:102FB50002F07D04123671123D1D9000A6123DD31C
:102FC50012411F7D047C017F377E00125325742139
:102FD500124138F07416123D88123D25123DD07409
:102FE50004F07D22123671123D1D9000A6123DD3CC
:102FF50012411F7F6712430312532520010E123D14
:103005007C123D25123DD07403123650200319124F
:103015003D7C123D25123DD07403F07B187D227C4A
:10302500017F7B1263D8801A123D25123F82123D23
:1030350012746AF0A374C1123E367FAA12430312BA
:10304500688E126837200040780A7601900034E0D7
:10305500FF3395E0FE780AE6D39FEE124194505077
:10306500123F1AC007123D2D124142D007123626D3
:10307500C007123E097476123D45124131D0071240
:103085005494780A06023051780A7601123F1AC024
:1030950007123D2D124142D007123626C007123EB7
:1030A500097476123D45124131D00712366640DC6F
:1030B50012403878ACE664E7700418E664036003F0
:1030C500023187786F06125DC220020C78B1E6C323
:1030D500786A9640031240AD3000030231879000B4
:1030E50034E0F9C364809481500302318712426C45
:1030F500C333CE33CED8F912430AC006C007EDFF5D
:103105003395E0FE74392FF58274003EF583E012A5
:103115003E15EB242CFBE43AFAE9FF3395E0FE7407
:103125003A2FF58274003EF583E0123D4812414284
:10313500D007D00612549490003412426CC333CE9B
:1031450033CED8F912430AC006C007EDFF3395E028
:10315500FE74FF2FF58274FF3EF583E0123E15EBFA
:10316500242CFBE43AFA124099E0123D4812413111
:10317500D007D006125494900034E0B43104E478BA
:103185006FF6300069C3786FE664809485405FE42C
:10319500F6780A7601123F1AC007123D2D12423009
:1031A500D00712363BC007123E097476123D451210
:1031B5004230D00712366640DC12632F126837782A
:1031C5000A7601123F1AC007123D2D124142D0075F
:1031D50012363BC007123E097476123D4512413145
:1031E500D007125494780A06E6D3943140D52001CD
:1031F5000302340A78ABE6FE08E6FF64C84E600DAC
:10320500EF64BC7003EE6402600302340A7823069F
:10321500E6187001069000807401F0A37400F0A315
:103225007475F07B017A007973125F6B900075E01D
:10323500FEA3E0FF7823E625E02422F8A60608A6EB
:10324500077823E664081846600302340AF608F690
:10325500780A7601780AE6FFC394085048EF040817
:10326500F6780BE6FFD3940850361240B5780AE697
:10327500124277D39FEC9E4022780AE6FF900073B6
:10328500ECF0A3EDF008E6FE124277EF12428290D1
:103295000073E0FCA3E0FDEE124282780B0680C1CC
:1032A500780A0680AFE4900075F0A3F0A3F0A3F0D0
:1032B50090007BF0A3F0780A7601780AE6FFD394B4
